:020000040800F2
:10000000A831002099020008A1020008C9030008D5
:10001000A5020008A7020008A902000800000000CD
:10002000000000000000000000000000AB0200081B
:10003000AD02000800000000070300085912000884
:10004000B3020008B3020008B3020008B3020008BC
:10005000B3020008B30200085F090008A109000804
:10006000B3090008C5090008D7090008B302000851
:10007000B3020008B3020008B3020008B30200088C
:10008000B3020008B3020008B3020008B30200087C
:10009000B3020008B3020008B3020008E90900082F
:1000A000B3020008B3020008B3020008B30200085C
:1000B000B3020008B3020008B3020008B30200084C
:1000C000B3020008B3020008B3020008B30200083C
:1000D000B30200081D13000835130008B30200081E
:1000E00071090008B3020008B3020008B302000857
:1000F000B3020008B3020008B3020008B30200080C
:10010000B3020008B3020008B3020008B3020008FB
:10011000B3020008B3020008B3020008B3020008EB
:10012000B3020008B3020008B3020008B3020008DB
:10013000B3020008B3020008B3020008B3020008CB
:10014000B3020008B3020008B3020008B3020008BB
:10015000B3020008B3020008B3020008B3020008AB
:10016000B3020008B3020008B3020008B30200089B
:10017000B3020008B3020008B3020008B30200088B
:10018000B3020008B3020008B3020008B30200087B
:10019000B3020008B302000800F002F800F065F8AE
:1001A0000AA090E8000C82448344AAF10107DA45D2
:1001B00001D100F05AF8AFF2090EBAE80F0013F0BF
:1001C000010F18BFFB1A43F00103184718F900008C
:1001D00038F900000A444FF0000C10F8013B13F00E
:1001E000070408BF10F8014B1D1108BF10F8015B90
:1001F000641E05D010F8016B641E01F8016BF9D183
:1002000013F0080F1EBF10F8014BAD1C0C1B09D1D9
:100210006D1E58BF01F801CBFAD505E014F8016B4B
:1002200001F8016B6D1EF9D59142D6D370470000DD
:100230000023002400250026103A28BF78C1FBD8EF
:10024000520728BF30C148BF0B6070471FB50DF083
:100250008FFB00F08DFA0400002000210DF072FBEE
:10026000401C60601FBD10B510BD00F045FB11467D
:10027000FFF7ECFF00F06EFB00F063FB03B4FFF749
:10028000F2FF03BC02F09CFB002804D090FAA0F01F
:10029000B0FA80F0401C7047094880470948004781
:1002A000FEE7FEE7FEE7FEE7FEE7FEE7FEE7FEE726
:1002B000FEE7FEE704480549054A064B7047000083
:1002C0006912000899010008A8190020A83100202F
:1002D000A81C0020A81C0020EFF3108072B6704705
:1002E00080F310887047464A1368012B04D04FF002
:1002F00001031360434A1060434A116043484FF0C2
:10030000805101607047EFF3108272B63C4801687B
:1003100051B34FF0000101603A48016891B1EFF329
:1003200009811EF0100F08BF21ED108B21E9F00F9D
:100330004FF000041EF0100F08BF012441F8044DD7
:100340000068016030490968096808C9B1E8F00F20
:10035000002B18BFB1EC108B81F309884EF0100E02
:10036000002B18BF2EF0100E82F310884EF0040EF2
:10037000704725490860EFF3148222F0040282F3EB
:10038000148820494FF0000008601D494FF001001B
:1003900008601F481F49D0F8002041EA02010160AF
:1003A0001A484FF0805101601B480068006880F3D4
:1003B000088861B662B64FF0000080F31188BFF381
:1003C0004F8FBFF36F8F70471EF0040F0CBFEFF31A
:1003D0000880EFF3098020E9F00F40F804ED40F8C1
:1003E00004ED1EF0040F0CBF80F3088880F3098829
:1003F00000B508F003FD5DF804EB4EF0040E704705
:10040000FC120020F4120020F812002004ED00E09D
:1004100020ED00E00000FFFF08ED00E07047000065
:1004200010B500F0A5F9001D10BD00BF19D50000E2
:1004300070B5064600F0A0F90468054630460A2269
:10044000002100F0ECF92C6070BD2DE9F05F9346BF
:100450000F4680460446002600F08EF9D0F8009042
:10046000824614F8015B2DB1FFF7DAFF0068405DAA
:10047000C007F6D12B2D02D02D2D1AD0641E0021DD
:10048000CAF800105A463946204600F079F901466C
:1004900027B13868A04201D1C7F80080DAF800001F
:1004A000022809D0CAF80090700505D54842BDE879
:1004B000F09F46F48066E2E70846F8E7401ECAB2BD
:1004C00010F8011F8A4202D00029F9D1002070479C
:1004D00040EA010310B59B070FD1042A0DD310C8C1
:1004E00008C9121F9C42F8D020BA19BA884201D913
:1004F000012010BD4FF0FF3010BD1AB1D30703D05B
:10050000521C07E0002010BD10F8013B11F8014B10
:100510001B1B07D110F8013B11F8014B1B1B01D12C
:10052000921EF1D1184610BD40EA0103024630B5D3
:100530009B0710D14FF0013400E008C208C91D1B11
:100540009D4315EAC41FF8D013F0FF0102F8011B08
:100550000DD01B0AF8E711F8013B002B02F8013B14
:1005600005D011F8013B002B02F8013BF3D130BD5F
:1005700010B5431C02E010F8011B71B18107FAD1DC
:100580004FF0013202C88C1A8C4314EAC211F9D020
:10059000C01A0A0603D0C01E10BDC01A10BD0A043E
:1005A00001D0801E10BD0902FCD0401E10BD40EAE3
:1005B000010370B59B072ED14FF00136042A2AD3D0
:1005C00008C810C99D1B9D43121F15EAC61517D0F8
:1005D000D8B2E1B2401A50EA056110D198B2A1B286
:1005E000401A50EA05410AD123F07F4024F07F41B0
:1005F000401A50EA052102D1180EA0EB146070BD1C
:10060000A342DBD018BA21BA884201D9012070BDBB
:100610004FF0FF3070BD0AB9002070BD10F8013BEB
:1006200011F8014B63B1A3420AD1521E08D010F851
:10063000013B11F8014B1BB1A34201D1521EEDD178
:10064000181B70BD4FF0000200B513469446964645
:10065000203922BFA0E80C50A0E80C50B1F12001D5
:10066000BFF4F7AF090728BFA0E80C5048BF0CC083
:100670005DF804EB890028BF40F8042B08BF7047E1
:1006800048BF20F8022B11F0804F18BF00F8012B53
:10069000704710B5044610F0030F08BF11F0030FA8
:1006A00040F015804FF0013E121FC0F20E8051F84D
:1006B000043BA3EB0E0C2CEA030C1CEACE1C08BF77
:1006C00040F8043BF0D0A1F1040102F10402521EF3
:1006D00008DB11F8013B002B00F8013BF7D1114674
:1006E00000F0D5F8204610BD4FF0013C50F8042B27
:1006F00051F8043B9A4221D1A2EB0C03934313EA35
:10070000CC1317D150F8042B51F8043B9A4215D161
:10071000A2EB0C03934313EACC130BD150F8042B38
:1007200051F8043B9A4209D1A2EB0C03934313EA1C
:10073000CC13DBD04FF00000704700BFD01A01BAD5
:10074000B1FA81F101F0180122FA01F0CB40C1F1B8
:100750002001DBB2C0B2C01A2CFA01F3D11A9143C6
:1007600011EAC311E6D17047704770477047000027
:100770000048704764190020004870474419002061
:100780002DE9F05F824615468B4600270AF10104E9
:10079000B9460078302801D09DB113E014F8010B60
:1007A0000127782803D0582801D045B10AE00DB1BF
:1007B000102D07D1002714F8010B102502E00825A1
:1007C00000E00A250026B0460EE005FB080005FB08
:1007D00006F101271FFA80F801EB1046B6F5803FBD
:1007E00000D3B94614F8010B294600F077F8002829
:1007F000EBDABBF1000F05D00FB1641E00E05446E8
:10080000CBF80040B9F1000F06D0FFF7B5FF022189
:100810000160C81EBDE8F09F48EA0640FAE72DE9EE
:10082000F04791460F4680460446002614F8015BC7
:100830002DB1FFF7F5FD0068405DC007F6D12B2D07
:1008400002D02D2D18D0641E4A4639462046FFF7A7
:1008500097FF27B13968A14201D1C7F800804FF056
:10086000020471050BD54042002803DDFFF784FF29
:100870000460A007BDE8F08746F48066E4E700283E
:10088000F8DAFFF779FF04606FF00040F2E74FF00D
:1008900000020429C0F0128010F0030C3FF4D4AE23
:1008A000CCF1040CBCF1020F18BF00F8012BA8BF5B
:1008B00020F8022BA1EB0C01FFF7C6BE5FEAC17C5A
:1008C00024BF00F8012B00F8012B48BF00F8012BD2
:1008D0007047000000487047441900203A2800D2B1
:1008E000303820F02002412A01D3A2F1370088429B
:1008F00001D34FF0FF3070477546FFF7EBFFAE4670
:1009000005006946534620F00700854618B020B51B
:10091000FFF7D0FCBDE820404FF000064FF0000785
:100920004FF000084FF0000B21F00701AC46ACE897
:10093000C009ACE8C009ACE8C009ACE8C0098D4604
:10094000704710B50446AFF300802046BDE8104064
:10095000FFF794BC10B50CF0BDFC002010BD10B525
:1009600008F09AFE002000F0A1F908F0B7FE10BDD3
:1009700010B508F091FE0A2000F098F90B2000F065
:1009800095F90C2000F092F90D2000F08FF90E205F
:1009900000F08CF90F2000F089F908F09FFE10BDDF
:1009A00010B508F079FE012000F080F908F096FEFD
:1009B00010BD10B508F070FE022000F077F908F0C5
:1009C0008DFE10BD10B508F067FE032000F06EF933
:1009D00008F084FE10BD10B508F05EFE042000F0A3
:1009E00065F908F07BFE10BD10B508F055FE052036
:1009F00000F05CF9062000F059F9072000F056F9E4
:100A0000082000F053F9092000F050F908F066FEC4
:100A100010BD000001490860704700001404014047
:100A2000014600200022074B1B6803EA0102054B28
:100A300014331B680B4013B10AB1012000E0002001
:100A40007047000000040140002123498279002AF8
:100A50003AD00A46126803689A430B461A600A1D88
:100A6000126803689A430B1D1A60027911440A68E0
:100A700003681A430A60184A0832126803689A43E6
:100A8000154B08331A601A1D126803689A43124BFB
:100A90000C331A604279102A0ED11A1F12680368AB
:100AA0001A430D4B08331A601A1D126803681A4363
:100AB000094B0C331A600DE00749427911440A686A
:100AC00003681A430A6005E0027911440A68036862
:100AD0009A430A60704700000004014030B50022CC
:100AE0008B071C0F0F2303FA04F20B4B8C1053F8E7
:100AF00024309343084C8D1044F8253023468C1045
:100B000053F824308C07240F00FA04F42343024CDA
:100B10008D1044F8253030BD080001402DE9F0412A
:100B2000024600250026002000230024002791F81B
:100B300003C00CF00F0591F803C00CF0100CBCF1D1
:100B4000000F03D091F802C04CEA050591F800C0EF
:100B5000BCF1000F31D0146800202BE04FF0010CE5
:100B60000CFA00F3B1F800C00CEA03069E4220D153
:100B700083004FF00F0C0CFA03F7BC4305FA03FC9B
:100B80004CEA040491F803C0BCF1280F06D14FF0E1
:100B9000010C0CFA00FCC2F814C00AE091F803C082
:100BA000BCF1480F05D14FF0010C0CFA00FCC2F863
:100BB00010C0401C0828D1D31460B1F800C0BCF1AB
:100BC000FF0F34DD546800202EE000F1080C4FF0D8
:100BD000010808FA0CF3B1F800C00CEA03069E42C3
:100BE00021D183004FF00F0C0CFA03F7BC4305FA38
:100BF00003FC4CEA040491F803C0BCF1280F05D1B2
:100C000000F1080C08FA0CF8C2F8148091F803C03F
:100C1000BCF1480F07D100F1080C4FF0010808FAA9
:100C20000CF8C2F81080401C0828CED35460BDE8F0
:100C3000F0814FF6FF710180012181700421C170A4
:100C400070470246002093680B400BB1012000E082
:100C50000020704741617047016170470AB101612E
:100C600000E0416170470000014988607047000062
:100C7000003000404CF6CC4001490860704700004D
:100C8000003000404AF6AA20014908607047000081
:100C900000300040014948607047000000300040CB
:100CA00001490860704700000030004070B50446FC
:100CB000012101FA04F0FFF7B3FEA0B125460A486E
:100CC00000EB0510806840B1074A02EB0512D068BE
:100CD000054A02EB05129168884700BF012101FA1D
:100CE00004F0FFF797FE70BD0C0F002010B5002137
:100CF0004FF0006000F044F810BD000070B5002116
:100D000000230F22C47804B3154C246804F4E06473
:100D1000C4F5E064210AC1F10403CA40447804FA2E
:100D200003F184781440214309010E4C0678A15543
:100D3000047804F01F050124AC4005786D11AD0066
:100D400005F1E025C5F8004109E0047804F01F052D
:100D50000124AC40044D0678761145F8264070BD5C
:100D60000CED00E000E400E080E100E00249014316
:100D7000024A1160704700000000FA050CED00E027
:100D8000024A0A400243024B1A60704780FFFF1F6D
:100D900008ED00E001460020034A506820F4E060BE
:100DA00008435060704700000010024001460020D8
:100DB000034A506820F4605040EAC1005060704718
:100DC0000010024029B1064AD2690243044BDA619D
:100DD00004E0034AD2698243014BDA6170470000A4
:100DE0000010024029B1064A92690243044B9A61FD
:100DF00004E0034A92698243014B9A617047000004
:100E0000001002400149086070470000800442421F
:100E1000F0B5002100BF002200250024384E76687E
:100E2000384F06EA0702364E766806F4803502F03F
:100E300000661EB9022606EB924204E04FF4F876F3
:100E4000C6EB9246721C1DB92F4E02FB06F30BE057
:100E50002B4E766806F400361EB12B4E02FB06F3CD
:100E600002E02A4E02FB06F3254E766806F00C01DE
:100E700021B1042905D0082908D105E0234E0660D8
:100E800007E0224E066004E0036002E01F4E0660A9
:100E900000BF00BF1A4E766806F0F00109091C4E2B
:100EA000745C0668E6404660154E766806F4E061BC
:100EB000090A174E745C4668E6408660104E7668F4
:100EC00006F46051C90A124E745C4668E640C6607A
:100ED0000B4EF66A06F00F010E4E745C4668B6FBC8
:100EE000F4F64661064EF66A06F4F871090901F057
:100EF0000F06094F37F81640B3FBF4F60661F0BD54
:100F00000010024000003C0800093D0000127A0079
:100F1000E2ED0008F2ED000802EE000810B501460F
:100F20000022002300204A11012A02D1094C236823
:100F300006E0022A02D1074C236A01E0054C636AED
:100F400001F01F02012494401C400CB1012000E07C
:100F5000002010BD0010024021B1028842F0400282
:100F6000028004E002884FF6BF731A400280704787
:100F70000246002013890B400BB1012000E0002045
:100F800070470146888970478181704710B50022FB
:100F9000028802F441520B884C8823438C882343F7
:100FA000CC8823430C8923434C8923438C892343D6
:100FB000CC8923431A430280838B4FF2FF74234072
:100FC00083830B8A038210BD1CB5582008F02EFCC9
:100FD00004462CB919A008F093FB4FF0FF301CBD5C
:100FE0004FF48053204A21A122A008F06FF91FA0DE
:100FF00007F03AFB044644B920A008F081FB2046E4
:1010000007F01AFE4FF0FF30E9E708208DF80100E5
:1010100004208DF8000024480190694620460AF01B
:10102000D3FC28B121A008F06BFB4FF0FF30D6E7CE
:1010300026A008F065FB0020D1E700004661696C3E
:10104000656420746F20616C6C6F63617465206DE2
:10105000656D6F727920666F722053504920646508
:10106000766963650A000000000C01407370693204
:101070003000000073706932000000007370692056
:1010800073616D706C652072756E206661696C6548
:1010900064212063616E27742066696E6420646534
:1010A00076696365210A0000809698004661696C44
:1010B000656420746F20636F6E6669677572652062
:1010C000535049206465766963650A00535049317D
:1010D0002064657669636520696E697469616C690D
:1010E0007A6564207375636365737366756C6C7978
:1010F0000A00000031B509A007F0B6FA044624B989
:1011000006A108A008F0FCFA38BD012300226946B8
:1011100020460AF0E9FC00BFF6E700007370693270
:10112000300000007370692073616D706C6520720F
:10113000756E206661696C6564212063616E277439
:101140002066696E64202573206465766963652175
:101150000A0000000EB5002002900190009038486F
:10116000006840F480303649086000BF34480068A9
:10117000C0F3404001900098401C00909DF804008E
:1011800018B90098B0F5004FF0D12D480068C0F3B1
:10119000404001909DF8040018B92A482A49086087
:1011A0000EBD2A48006820F007002849086008465C
:1011B000006840F004000860214840682049486009
:1011C0000846406840F4005048600846406840F4D3
:1011D000A0604860084640681D49084018494860BA
:1011E000084640680290029840F4803002900298CD
:1011F00002901849029808430290114902984860E9
:101200000846006840F08070086000BF0C48006825
:1012100000F000700028F9D00948406820F0030071
:10122000074948600846406840F00200486000BF37
:101230000348406800F00C000828F9D100BFAFE770
:101240000010024000127A00041300200020024027
:10125000FFFFC0F70000040810B508F01DFA0BF0FE
:1012600065FA08F03BFA10BD10B52548006840F457
:101270007000234908602348006840F001002149BC
:10128000086008464068204908401E4948600846F2
:1012900000681E4908401B4908600846006820F4A1
:1012A0008020086008464068194908401549486090
:1012B0004FF46050C8624FF4615008634FF41F0050
:1012C00088600846C06940F08050C8611148C06815
:1012D00040F001000F49C8600A48C06920F0805002
:1012E0000849C8610C48006840F090000A4908604D
:1012F000FFF730FF4FF0006001498039086010BDF2
:1013000088ED00E00010024000C0FFF8FFFFF6FE8D
:10131000FFFF00F7007000400020024010B508F009
:10132000BBF903480CF0C4F908F0D8F910BD00006F
:101330004814002010B508F0AFF903480CF0B8F9D4
:1013400008F0CCF910BD0000B0140020F0B5034641
:10135000002400260025002040F66A17B94200D17B
:1013600000BF1846C1F3421401F01F06012707FA17
:1013700006F5012C01D10C3004E0022C01D1103013
:1013800000E014301AB107682F43076002E00768D5
:10139000AF430760F0BD21B1828942F400528281DF
:1013A00004E082894DF6FF731A408281704702463D
:1013B0000020B1F5007F00D100BF13880B400BB1B6
:1013C000012000E00020704770B502460024002391
:1013D0000025002040F66A16B14200D100BFC1F3DB
:1013E000421501F01F03012606FA03F3012D02D175
:1013F0009689334006E0022D02D1168A334001E07F
:10140000968A33400C12012606FA04F416883440FA
:1014100013B10CB1012000E0002070BD2DE9F047B0
:1014200086B005460F460024A24600BF00BF002636
:10143000B88900B100BF2E462C8A4CF6FF700440DC
:10144000F88804432C82AC894EF6F3100440B88827
:1014500039890843798908430443AC81AC8A4FF643
:10146000FF400440B8890443AC826846FFF7D0FCD3
:101470001948864205D01948864202D0184886424B
:1014800002D1DDF80CA001E0DDF808A00AEBCA00EB
:1014900000EB0A1039688900B0FBF1F86420B8FB52
:1014A000F0F004012009642101FB1080322101EBDE
:1014B00000106421B0FBF1F90120B0EB191F04D139
:1014C0006420B8FBF0F0401C040109F00F00044355
:1014D0002C8106B0BDE8F087003801400050014083
:1014E0000054014001468888C0F308007047C1F3EA
:1014F0000802828070470000002817DB00F01F02FE
:10150000012191400A4A430942F8231000BF00BF5D
:1015100000BFBFF34F8F00BF00BF00BF00BF00BFC1
:1015200000BFBFF36F8F00BF00BF00BF7047000058
:1015300080E100E001460A46C81701EB9070801078
:10154000A1EB800070B9642091FBF0F300FB131055
:1015500030B94FF4C87091FBF0F300FB131008B9D9
:10156000012070470020FCE770B505460BF012F82B
:1015700004468CB100BF09A008F0C2F82A462146F3
:101580000BA008F0BDF80FA008F0BAF800BF0022C9
:10159000012120460AF0A8FD70BD00001B5B33331B
:1015A0006D5B572F7374646C69625D2000000000EE
:1015B0007468726561643A257320657869743A25A8
:1015C000642100001B5B306D0A0000002DE9F04132
:1015D00005460C460026207FFF2805D1284609F045
:1015E0001BF8617F88420AD1FF27284601F049FA9B
:1015F00007463946284608F0CBFF012600BF304693
:10160000BDE8F08170B504460D466FF0FE06164841
:10161000006820B915A007F027F8134908601248A0
:10162000006888B100211048006807F025F8C8B9A3
:101630002A4621460C48006806F0CCFF06460A48B8
:10164000006806F06FFF0DE000BF09A008F058F831
:101650000BA008F055F811A008F052F800BF6FF089
:101660002C0070BD3046FCE7DC0E00207274630075
:101670001B5B33336D5B572F74696D655D20000014
:1016800043616E6E6F742066696E642061205254EF
:101690004320646576696365210000001B5B306D43
:1016A0000A00000010B50AF075FF28B14FF0FF31B5
:1016B000024808F0B3FB10BD0020FCE790170020A3
:1016C00010B504462CB14FF42B72054905A005F066
:1016D000E5FF0AF05FFF10B1064808F087FA10BD79
:1016E000F5EA00086C6576656C203D3D2052545F3C
:1016F000454F4B009017002010B5044604F114002C
:1017000008F020F8002010BD70B504460D460748CB
:10171000006818B9204607F06FFB06E02B4622460A
:1017200000210248006807F04BF970BD70110020DD
:101730002DE9F04105460C46264637680822394611
:1017400028460AF019FB18B975600120BDE8F08140
:101750000020FBE72DE9F0438BB00546894617468C
:1017600000242DB94FF4A5721D491EA005F096FF67
:101770002FB940F24B121A491BA005F08FFF00E071
:10178000641C4C4505D2285D202802D0285D09281C
:10179000F6D124B96FF0FE000BB0BDE8F08321460E
:1017A000284604F011FE064616B96FF0FE00F3E776
:1017B0002822002101A808F0DBF801AA49462846A2
:1017C00004F044FF8046B8F1000F02D16FF0FE0034
:1017D000E2E701A94046B04738600020DCE700009E
:1017E00034E70008636D64007265747000000000E7
:1017F00070B505460C46032D02DA00F0EBF870BD1B
:1018000016A061680AF083FA20B92146284600F044
:1018100039F820E012A061680AF079FA20B921466F
:10182000284600F05FF816E00FA061680AF06FFA32
:1018300020B92146284600F08DF90CE00CA0616823
:101840000AF065FA20B92146284600F0D1F902E0F5
:1018500000F0C0F8D3E700BFD1E700006E756D005F
:101860006D6F646500000000726561640000000037
:10187000777269746500000010B50446204608F0D0
:1018800049FD10BD70B506460C46032E02DA00F085
:10189000A1F870BDA068FFF7EFFF0546002D06DA3E
:1018A00006A0A16807F02CFF00F094F8F1E72A46A3
:1018B00009A0A16807F024FF00BFEAE75061726148
:1018C0006D6574657220696E76616C6964203A207A
:1018D0002573210A000000002573203A2025640AA0
:1018E000000000002DE9F04107460C46042F03DA02
:1018F00000F070F8BDE8F081A06804F0E5FD60B983
:10190000A068FFF7B9FF0646002E0ADA1BA0A168FF
:1019100007F0F6FE00F05EF8ECE7A068FEF788FD41
:1019200006461DA0E1680AF0F2F908B900251EE09C
:101930001BA0E1680AF0EBF908B9012517E01AA02D
:10194000E1680AF0E4F908B9022510E01AA0E1689C
:101950000AF0DDF908B9032509E01BA0E1680AF0E7
:10196000D6F908B9042502E000F034F8C2E7E9B27C
:10197000304608F0F7FC00BFBCE700005061726120
:101980006D6574657220696E76616C6964203A20B9
:101990002573210A000000006F75747075740000D3
:1019A000696E707574000000696E7075745F707593
:1019B0006C6C757000000000696E7075745F7075F6
:1019C0006C6C646F776E00006F75747075745F6F08
:1019D0006400000010B511A007F092FE14A007F0FB
:1019E0008FFE204807F08CFE1FA007F089FE2AA07A
:1019F00007F086FE34A007F083FE3D4807F080FE26
:101A00003CA007F07DFE47A007F07AFE4DA007F04E
:101A100077FE4FA008F07EFC10BD000070696E20BC
:101A20005B6F7074696F6E5D204750494F0A00000C
:101A300020202020206E756D3A2020202020206755
:101A400065742070696E206E756D626572206672B5
:101A50006F6D2068617264776172652070696E0ACB
:101A600000000000D0F000082020202020202020AE
:101A700020202020202020652E672E204D53482036
:101A80003E70696E206D6F6465204750494F206F2E
:101A900075747075740A0000202020202072656122
:101AA000643A2020202020726561642070696E20D5
:101AB0006C6576656C206F66206861726477617210
:101AC000652070696E0A0000202020202020202040
:101AD00020202020202020652E672E204D534820D6
:101AE0003E70696E2072656164204750494F0A005C
:101AF00024F1000820202020202020202020202049
:101B0000202020652E672E204D5348203E70696EA0
:101B1000207772697465204750494F20686967686B
:101B20000A000000202020202068656C703A2020E8
:101B3000202020746869732068656C70206C69735C
:101B4000740A00004750494F20652E672E3A000066
:101B5000200000002DE9F04106460C46032E03DA72
:101B6000FFF738FFBDE8F081A06804F0ADFC60B974
:101B7000A068FFF781FE0546002D0ADA0DA0A168D6
:101B800007F0BEFDFFF726FFECE7A068FEF750FC6C
:101B90000546284608F00AFCC7B2012F04D12946A1
:101BA0000BA007F0ADFD03E029460DA007F0A8FD4E
:101BB00000BFD7E7506172616D6574657220696E10
:101BC00076616C6964203A202573210A00000000C8
:101BD00070696E5B25645D203D20686967680A0056
:101BE00070696E5B25645D203D206C6F770A000094
:101BF0002DE9F04107460C46042F03DAFFF7EAFE11
:101C0000BDE8F081A06804F05FFC60B9A068FFF750
:101C100033FE0546002D0ADA15A0A16807F070FD15
:101C2000FFF7D8FEECE7A068FEF702FC054617A018
:101C3000E1680AF06CF820B116A0E1680AF067F8D4
:101C400008B901260EE014A0E1680AF060F820B19E
:101C500012A0E1680AF05BF808B9002602E0FFF77D
:101C6000B9FECDE73146284608F0C2FB00BFC7E702
:101C7000506172616D6574657220696E76616C6920
:101C800064203A202573210A000000006869676813
:101C9000000000006F6E00006C6F77006F666600DA
:101CA0002DE9F0410546884616462F4627B93722CA
:101CB000084909A005F0F2FC34461CB96FF0FE009B
:101CC000BDE8F08122792168786C0368284698473E
:101CD0000020F5E725DD000870696E20213D2052C7
:101CE000545F4E554C4C00002DE9F047054689469F
:101CF00016461F46A846B8F1000F04D116220A491D
:101D00000AA005F0CBFC34460CB1082F02D000200D
:101D1000BDE8F0872168D8F84400826828469047DB
:101D200020713846F4E7000010DD000870696E206D
:101D3000213D2052545F4E554C4C00002DE9F04798
:101D40000546894616461F46A846B8F1000F04D13D
:101D500026220A490AA005F0A1FC34460CB1082F3E
:101D600002D00020BDE8F08722792168D8F844002D
:101D70004368284698473846F4E700001ADD000813
:101D800070696E20213D2052545F4E554C4C00002E
:101D90002DE9F74781B00446904600BF05F006FFE5
:101DA00048B19A499AA007F0ABFC40F235529749E6
:101DB000A2A005F073FC00BF0AF0ECFB48B9934900
:101DC0009FA007F09DFC40F2355290499BA005F082
:101DD00065FC00BF07F072FC48B18C49A6A007F073
:101DE0008FFC40F23552894994A005F057FC00BFA2
:101DF00000BF00BF2CB94FF4A7628449A8A005F02A
:101E00004DFC204608F0EAF9032805D040F239528B
:101E10007E49A84805F042FC0AF0BCFB054604F1E7
:101E20002C0009F047FF00BFA348006818B1204606
:101E3000A1490968884700BF0020A862206AA8421B
:101E40000FD1A07FFF2803DAA07F401CA077CDE050
:101E500004F12C0009F041FF6FF0220004B0BDE84E
:101E6000F087206AC8B92562FF2060770120A0773B
:101E7000207FFF280AD0206A08F0CEFB217F88420D
:101E800004DD217F4246206A00F0F0FE04F12401C7
:101E900005F1780007F05FFCA8E0029840B97520D2
:101EA000A86204F12C0009F018FF6FF07400D5E768
:101EB000627A434604F1140128460AF0A9FB06465B
:101EC0002EB104F12C0009F008FF3046C6E7C5F832
:101ED0008040684608F00EFB284608F09DFB074648
:101EE000617FB9420BDD6777206A08F095FB617F5F
:101EF000884204DD02223946206A00F0B7FE0098CD
:101F000008F052FC0298002809DD02AA002105F120
:101F100048000AF05FFC05F148000AF0D3FD04F127
:101F20002C0009F0DAFE08F053FC04F12C0009F053
:101F3000C1FE206AA84209D1A86A002855D040F203
:101F4000B35232495DA005F0A9FB4EE04FF0000905
:101F5000206AA84205D140F2BA522C495DA005F092
:101F60009DFBAE6A0EB96FF00A06684608F0C2FA29
:101F7000206A50B1206A08F04FFB8246284608F0DC
:101F80004BFB824501D14FF0010904F1140007F029
:101F90000EFC38B96069A0F12C0A504608F03CFBF1
:101FA000607701E0FF206077B9F1000F0DD0206A63
:101FB00000F067FD0746206A08F02EFBB84204D007
:101FC00002223946206A00F051FE009808F0ECFB2E
:101FD00004F12C0009F081FE0020C5F88000002EDD
:101FE00001DD70423AE7304638E700BF04F12C00CB
:101FF00009F073FE00BF3D48006818B120463B4918
:102000000968884700BF002028E7000012E900089F
:1020100046756E6374696F6E5B25735D3A207363FA
:10202000686564756C6572206973206E6F742061D9
:102030007661696C61626C650A0000003000000026
:1020400046756E6374696F6E5B25735D207368619E
:102050006C6C206E6F7420626520757365642062FD
:1020600065666F7265207363686564756C65722060
:1020700073746172740A000046756E6374696F6EE2
:102080005B25735D207368616C6C206E6F742062D9
:1020900065207573656420696E204953520A0000FB
:1020A0006D7574657820213D2052545F4E554C4C1F
:1020B0000000000014F50008B41200207468726576
:1020C00061642D3E6572726F72203D3D2052545FF7
:1020D000454F4B006D757465782D3E6F776E657258
:1020E00020213D207468726561640000B8120020F0
:1020F0002DE9F743044617462CB940F235224F49E3
:102100004FA005F0CBFA204608F068F8022805D069
:1021100040F2362249494E4805F0C0FA00BF4D480A
:10212000006818B120464B490968884700BF00BFC6
:1021300005F03CFD48B1414947A007F0E1FA40F203
:102140003B223E494FA005F0A9FA00BF0AF022FA4F
:1021500048B93A494CA007F0D3FA40F23B2237493C
:1021600048A005F09BFA00BF07F0A8FA48B1334930
:1021700053A007F0C5FA40F23B22304941A005F0D8
:102180008DFA00BF00BF00BF04F1200009F09AFDE6
:102190008046A08B002808DDA08B401EA08341460E
:1021A00004F1200009F0A4FD3DE0019840B941464A
:1021B00004F1200009F09CFD6FF07400BDE8FE837F
:1021C0000AF0E8F905460B20A862627A3B4604F162
:1021D000140128460AF01CFA064636B1414604F1BD
:1021E000200009F085FD3046E8E70198002809DD68
:1021F00001AA002105F148000AF0ECFA05F14800B7
:102200000AF060FC414604F1200009F071FD08F07D
:10221000DFFAA86A38B1A86A002802DDA86A40423D
:10222000CCE7A86ACAE700BF2F48006818B120466B
:102230002D490968884700BF0020BFE764E800080F
:1022400073656D20213D2052545F4E554C4C00006B
:10225000CCF40008B412002046756E6374696F6E8A
:102260005B25735D3A207363686564756C657220E5
:102270006973206E6F7420617661696C61626C6550
:102280000A0000003000000046756E6374696F6ECE
:102290005B25735D207368616C6C206E6F742062C7
:1022A000652075736564206265666F72652073636F
:1022B000686564756C65722073746172740A0000DD
:1022C00046756E6374696F6E5B25735D207368611C
:1022D0006C6C206E6F742062652075736564206974
:1022E0006E204953520A0000B812002070B504460F
:1022F00006480068FDF7C8FF451E054850F8350040
:10230000A0F12C062560304670BD0000C0120020F0
:10231000441800202DE9F04104460D4616461F469C
:102320002046FFF7E9F9E783A583667204F12000F0
:1023300009F0C7FCBDE8F08110B50948006868B92C
:1023400000BF08A007F0DCF90A4807F0D9F90AA095
:1023500007F0D6F900BF01200149086010BD000058
:10236000080F00201B5B33336D5B572F55415254D0
:102370005D20000068F100081B5B306D0A00000062
:102380002DE9F04704460F46904604B12FB940F2BC
:10239000FD12434943A005F081F904F1580009F00A
:1023A00091FC8246E06CC0F38F2000282FD10026DC
:1023B000256D2DB940F20722394945A005F06EF987
:1023C0002868012813D001202860606C006928B9B2
:1023D0004FF40372324943A005F060F9606C0123A9
:1023E00042463946D0F810C02046E04701E06FF081
:1023F0001606514604F1580009F07AFC16B9404619
:10240000BDE8F087304608F055FF0020F8E7256D5D
:102410000026204606F02EFB81462DB94FF40772A8
:102420001F493AA005F03AF9C84501DA464600E0EE
:102430004E46E8888119E06CC0F38F20814207D2B4
:10244000EA88286881183246384607F00DFA1CE001
:10245000E06CC0F38F20EB88C21A2868C118384698
:1024600007F002FAEB8803EB060CE36CC3F38F234F
:10247000ACEB0302E36CC3F38F233B44B5F806C017
:10248000A3EB0C00296807F0EFF93146204606F06F
:10249000F7FA514604F1580009F02AFC3046AFE73C
:1024A0002DDE00082873657269616C20213D205281
:1024B000545F4E554C4C29202626202864617461B7
:1024C00020213D2052545F4E554C4C290000000005
:1024D00072785F646D6120213D2052545F4E554CEF
:1024E0004C00000073657269616C2D3E6F70732D36
:1024F0003E646D615F7472616E736D697420213D1D
:102500002052545F4E554C4C0000000072785F66BC
:1025100069666F20213D2052545F4E554C4C00009F
:102520002DE9F047044688461646656D4FF0FF33A7
:1025300032464146281D05F041FE0746FFB904F129
:10254000580009F0BFFB8146286801280FD0012000
:102550002860494604F1580009F0CAFB606C022368
:1025600032464146D0F810C02046E04704E04946D4
:1025700004F1580009F0BCFB3046BDE8F08738464E
:1025800008F098FE0020F8E770B505462C6D2CB9D0
:1025900040F28F120F4910A005F080F8A088E18862
:1025A000884207D1A06808B9002070BDE86CC0F36C
:1025B0008F20FAE7A088E188884203DDA088E188BF
:1025C000401AF2E7E088A188411AE86CC0F38F2036
:1025D000401AEAE7D6DD000872785F6669666F2008
:1025E000213D2052545F4E554C4C00002DE9F047E0
:1025F00005460F4616462DB94FF49672214922A082
:1026000005F04CF8B0462C6D2CB94FF498721D496A
:1026100022A005F043F82EE005F1580009F052FB26
:102620008246E088A188884207D1A06828B951462F
:1026300005F1580009F05CFB1FE0E188206810F804
:102640000190E088401CE080E188E86CC0F38F20B6
:10265000814201DB0020E080A068012801D1002038
:10266000A060514605F1580009F042FB87F8009040
:102670007F1C761E00BF002ECED100BFA8EB060047
:10268000BDE8F087B8DD000873657269616C2021D0
:102690003D2052545F4E554C4C00000072785F66EE
:1026A00069666F20213D2052545F4E554C4C00000E
:1026B0002DE9F04104460E4615462CB94FF4AE7292
:1026C0001C491D4804F0EAFFA846676D2FB94FF476
:1026D000B072184919A004F0E1FF24E030780A280C
:1026E00010D1207E00F0400060B1606C0D21826846
:1026F00020469047401C28B94FF0FF31384605F07E
:102700009FF810E004E04FF0FF31384605F098F8EC
:102710003178606C826820469047401C0028F2D0D7
:10272000761C6D1E00BF002DD8D1A8EB0500BDE8BA
:10273000F0810000C7DD00089C2700087478202184
:102740003D2052545F4E554C4C0000002DE9F041A5
:1027500006460F46144626B9F4220F490FA004F08E
:102760009DFFA04611E0706CC16830468847054661
:10277000681C00B90BE03D707F1C641E307E00F0C9
:10278000400010B10A2D00D101E0002CEBD100BFB8
:10279000A8EB0400BDE8F08198DD0008736572695C
:1027A000616C20213D2052545F4E554C4C0000007E
:1027B0002DE9F04104460E4615462CB940F20B12A5
:1027C0001049114804F06AFF2F4615E030780A28B6
:1027D00008D1207E00F0400020B1606C0D2182689D
:1027E000204690473178606C8268204690470028E8
:1027F00000DA03E0761C6D1E002DE7D100BF781BC8
:10280000BDE8F081A8DD00089C2700082DE9F04113
:102810000446884616461F46254625B916220A490B
:102820000AA004F03BFFD5F8800020B91722064922
:102830000AA004F033FF3B4632460021D5F8800061
:1028400009F052F9BDE8F081C2DE0008627573201C
:10285000213D2052545F4E554C4C00006275732D43
:102860003E6F776E657220213D2052545F4E554C6D
:102870004C0000002DE9F0410446884616461F46EC
:10288000254625B924220A490AA004F007FFD5F8F5
:10289000800020B9252206490AA004F0FFFE3B462D
:1028A00000223146D5F8800009F01EF9BDE8F0811C
:1028B000D7DE000862757320213D2052545F4E55CB
:1028C0004C4C00006275732D3E6F776E657220214F
:1028D0003D2052545F4E554C4C000000034611B150
:1028E000012902D100E000E000BF00BF00207047D6
:1028F0002DE9F0410446884616461F46254625B96F
:102900005822094909A004F0C9FE686C20B959226F
:1029100005490BA004F0C2FE3B4632460021284682
:1029200009F0E2F8BDE8F08104DF0008646576692B
:10293000636520213D2052545F4E554C4C000000F1
:102940006465766963652D3E62757320213D205272
:10295000545F4E554C4C00002DE9F041044688462A
:1029600016461F46254625B96622094909A004F0E6
:1029700095FE686C20B9672205490BA004F08EFE15
:102980003B4600223146284609F0AEF8BDE8F0810A
:1029900018DF000864657669636520213D20525484
:1029A0005F4E554C4C0000006465766963652D3EB2
:1029B00062757320213D2052545F4E554C4C0000EF
:1029C00004462046FEF7D0FD00BFFEE770B5044682
:1029D00006F0F8F80646204609F042FB0546204678
:1029E00000F008F8204609F03DFC304606F01EF9DC
:1029F000284670BD2DE9F047044604F18C0009F02B
:102A000061F98046D4F8800078B1D4F8800007F0EE
:102A1000E5FB032809D1D4F880902146484606F00A
:102A2000D7FF0020C4F8800000BFA56F2E6808E023
:102A3000A5F124070120B877384607F0D7F83546C6
:102A40002E6804F178008542F2D14146143009F035
:102A50004FF9BDE8F08770B509F09CFD044606F01B
:102A6000B1F80546204609F0FBFA2046FFF7C2FF01
:102A7000204609F0F7FB284606F0D8F807F0A8FE34
:102A800070BD2DE9F041044600250026204607F0E0
:102A9000C7FD0746A56F0DE0A5F12406707F317FC5
:102AA000814201DD014600E0317F0846874200DDBA
:102AB00007462D6804F178008542EDD13846BDE81F
:102AC000F08100002DE9FC5F04468B4615461E464A
:102AD0000CAF97E880074A465146204607F0AAFD0A
:102AE000A561E6612762C4F824802321D4E90802A5
:102AF00006F03EFFD4E9083C63441A1F134BD4E9A7
:102B0000060106F00DFD606104F178004060006090
:102B100000BF00202834A065E06584F860002060D4
:102B2000E064E066283C082000212346084ACDE9FD
:102B30000010214604F1480009F072FF04F18C00F6
:102B400009F0BFF80020BDE8FC9F0000572A0008EC
:102B5000C12B000870B504460D4607262CB94FF46A
:102B60005572104910A004F099FD25B1012D04D033
:102B7000022D06D103E004260AE0062608E0072617
:102B800006E040F2613207490CA004F087FD00BF67
:102B900000BF3420005D20F0070030433421085589
:102BA00070BD000021ED0008746872656164202129
:102BB0003D2052545F4E554C4C0000003000000048
:102BC00038B505462C4624B99A22174917A004F0B7
:102BD00065FD204607F002FB012804D09B22124924
:102BE000174804F05BFD684607F084FC204607F0B8
:102BF0005DFD20B9A3220C4912A004F04FFD6FF037
:102C00007400A06204F12C00D0E900215160D0E9E9
:102C1000001211604060006000BF204607F00CFC0D
:102C2000009807F0C8FD38BD77EC0008746872653D
:102C3000616420213D2052545F4E554C4C000000F1
:102C400034F8000872745F73636865645F74687257
:102C50006561645F69735F73757370656E646564E5
:102C60002874687265616429000000002DE9F05F36
:102C700007468B466FF0FE0800255946384607F098
:102C800087FC80463FE0D7F88050002D39D0284699
:102C900007F0A4FA032834D14FF0FF092C4607F1BE
:102CA0002C0006F0A7FD627A394604F1140009F001
:102CB000C3F88046B8F1000F22D1264606F1140071
:102CC00006F075FD38B97069A0F12C0A504607F07E
:102CD000A3FC707701E0FF20707700BF206AFFF748
:102CE000D0FE8146206A07F097FC484506D0276A47
:102CF0004946384607F04CFC804601E06FF0FE087C
:102D000001E06FF0FE08B8F1000F04D1384607F07B
:102D1000CDFC0028B7D1BDE8F09F00002DE9FC41B3
:102D200005460E46304608F0CDFF804609F0F6FC19
:102D30000746684606F00CFD54E02868A0F114042C
:102D400009F0ECFC0746A06A381A6FF0004188428F
:102D500046D200BF2948006818B1204627490968B3
:102D6000884700BF204600F06EF8607A00F002004D
:102D700018B9607A20F00100607204F1140168460D
:102D800006F0F7FC4146304608F0B2FFD4E90710E0
:102D9000884700BF1A48006818B1204618490968DA
:102DA000884700BF304608F08DFF8046684606F031
:102DB00006FD00B116E004F1140006F02DFD607A66
:102DC00000F0020068B1607A00F0010048B1607A5A
:102DD00020F0010060722146284600F043F800E030
:102DE00005E000BF284606F0EAFC0028A5D000BF99
:102DF0004146304608F07CFFBDE8FC81E812002027
:102E0000EC1200202DE9F04704460E46174698467E
:102E1000DDF8209084F80990607A20F0010060725B
:102E2000E66127620020A062C4F82480002506E045
:102E300004F1140101EBC50006F08AFC6D1C012DA4
:102E4000F6DBBDE8F08770B50546002406E005F125
:102E5000140101EBC40006F0DFFC641C012CF6DB5E
:102E600070BD0000F8B506460D462846FFF7EBFF9B
:102E7000687A20F00100687200BF3348006818B11A
:102E8000284631490968884700BF09F047FC696A4C
:102E90000844A862009600242AE019E05DF8242086
:102EA0001168142202EBC402881A826AAB6AD21A31
:102EB00000D108E0826AAB6AD21A6FF000439A42EE
:102EC00000D20CE000BF5DF8240000684DF824003B
:102ED0005DF8240006EBC40149688842DED100BFDA
:102EE0002CB15DF824000830611C4DF82100641CF1
:102EF000002CD2D015480068401C144908600846D0
:102F0000076805F11401009806F033FC022412E072
:102F100007F0030060B9C4F1010305F1140202EBEC
:102F2000C301C4F101025DF8220006F022FC00E0BA
:102F300003E0BF08641C012CEAD900BF687A40F0A6
:102F4000010068720020F8BDB8120020F0120020C5
:102F500007463C4624B93A22264927A004F09EFBA6
:102F600046E004F1400008F0ADFE8146204606F040
:102F70000EFC68B109F00EFB0646022109F0C4FB05
:102F8000494604F1400008F0B3FE07F021FC2FE0B1
:102F900020680546284606F024FC2561288A20F092
:102FA0000100288200202864494604F1400008F00E
:102FB0009FFE2846D5E90221904700202061A046C7
:102FC00012E008F1140007F04AFE064606F175000B
:102FD00020B908F1140007F0E1FD05E00EB9002664
:102FE00003E06FF0FE0600E0EBE700BF00BF00BFAC
:102FF000B7E700007BDB0008717565756520213D32
:103000002052545F4E554C4C000000002DE9FC5FEF
:1030100005460C464FF0000900266FF0FE07012D13
:1030200072DD70A16068FDF75FFB002817D1032DEA
:1030300011D1A06805F018FB6C49086008460068CB
:1030400008B96BA000E06CA0804642466CA0A16865
:1030500006F056FBC4E06EA006F052FBC0E06348E9
:10306000006830B976A006F04BFB6FF0FE00BDE8BB
:10307000FC9F7FA16068FDF737FB002821D1032D5D
:103080001BD1A068FDF7D4F94FFA80FA5146574892
:10309000006804F063FA07460FB957A000E054A097
:1030A0008046A068FDF7C4F98246434652464F4821
:1030B000016871A006F024FB92E076A006F020FBE8
:1030C0008EE080A16068FDF70FFB00281DD1032D65
:1030D00016D1A068FDF7ACF94FFA80FA5146434883
:1030E000006804F057FA8146A068FDF7A1F982460E
:1030F0004B4652463D48016874A006F001FB6FE064
:103100007CA006F0FDFA6BE056E088A16068FDF750
:10311000EBFA002821D1032D1BD1A068FDF788F917
:103120004FFA80FA51463148006804F0FBF907462F
:103130000FB931A000E02EA08046A068FDF778F915
:10314000824643465246294801687AA006F0D8FADA
:1031500046E07FA006F0D4FA42E089A16068FDF75E
:10316000C3FA28BB032D1FD1A068FDF761F94FFA00
:1031700080FA51461D48006804F026FA06464FF4CE
:103180007A7096FBF0F100FB116A96FBF0FBA068E9
:10319000FDF74EF95B460246CDE900A013480168F1
:1031A00079A006F0ADFA1BE080A006F0A9FA17E0BE
:1031B00086A006F0A5FA13E090A006F0A1FA92A06E
:1031C00006F09EFA9CA006F09BFAAAA006F098FAD8
:1031D000B4A006F095FABFA006F092FA6FF0FE07D1
:1031E000002044E770726F6265000000FC0E002052
:1031F0006661696C757265007375636365737300EE
:1032000070726F6265202573202573200A0000000C
:103210006164632070726F6265203C6465766963E7
:1032200065206E616D653E2020202D2070726F62DA
:103230006520616463206279206E616D650A00001B
:10324000506C65617365207573696E6720276164D2
:10325000632070726F6265203C64657669636520E7
:103260006E616D653E272066697273740A00000006
:10327000656E61626C6500002573206368616E6E27
:10328000656C20256420656E61626C657320257312
:10329000200A000061646320656E61626C65203CF9
:1032A0006368616E6E656C3E2020202D20656E6126
:1032B000626C6520616463206368616E6E656C0A90
:1032C0000000000072656164000000002573206347
:1032D00068616E6E656C20256420207265616420D3
:1032E00076616C75652069732030782530385820F8
:1032F0000A0000006164632072656164203C6368B9
:10330000616E6E656C3E20202020202D207265614C
:1033100064206164632076616C7565206F6E207433
:103320006865206368616E6E656C0A00646973612C
:10333000626C65002573206368616E6E656C202584
:10334000642064697361626C65202573200A000043
:103350006164632064697361626C65203C636861C9
:103360006E6E656C3E20202D2064697361626C6511
:1033700020616463206368616E6E656C0A00000002
:10338000766F6C74616765002573206368616E6E8B
:10339000656C20256420766F6C74616765206973A5
:1033A0002025642E2530336456200A006164632092
:1033B000636F6E7665727420766F6C7461676520DA
:1033C0003C6368616E6E656C3E200A00556E6B6EE4
:1033D0006F776E20636F6D6D616E642E20506C652B
:1033E00061736520656E74657220276164632720B0
:1033F000666F722068656C700A0000005573616723
:10340000653A200A000000006164632070726F62F8
:1034100065203C646576696365206E616D653E205C
:103420002D2070726F626520616463206279206E66
:10343000616D650A0000000061646320726561646B
:10344000203C6368616E6E656C3E20202020202049
:103450002D2072656164206164632076616C7565FE
:10346000206F6E20746865206368616E6E656C0AFB
:10347000000000006164632064697361626C652010
:103480003C6368616E6E656C3E2020202D2064696F
:103490007361626C6520616463206368616E6E6550
:1034A0006C0A000061646320656E61626C65203C9B
:1034B0006368616E6E656C3E202020202D20656E55
:1034C00061626C6520616463206368616E6E656C27
:1034D0000A00000061646320766F6C746167652088
:1034E0003C6368616E6E656C3E2020202D20726505
:1034F000616420766F6C74616765206F6E207468FC
:1035000065206368616E6E656C0A000010B5044644
:103510000249204600F004F810BD000060130020AE
:1035200070B505460C4605B124B9152007F0C2FE5A
:10353000002070BD1A220021204606F019FA4C48DE
:1035400008F010FCA969B0EB810F06DD494808F0CE
:1035500009FC2969B0EB810F41DC00BF46A006F0F1
:10356000CFF8494806F0CCF848A006F0C9F800BFEB
:103570003F48006820603F480068606004F1080030
:10358000E96803F0D4FD207A302801D12020207290
:103590002020A07204F10B00A96803F0C8FD3A20B6
:1035A000607304F10E00696803F0C1FD3A202074D5
:1035B00004F11100296803F0BAFD2020E074142101
:1035C00004F1140003F0B3FD002104F1160003F030
:1035D000AEFD0A202076002060762046A9E7244927
:1035E000A86951F8200020602249286951F820007C
:1035F000606004F10800E96803F099FD207A302842
:1036000001D1202020722020A07204F10B00A968B3
:1036100003F08DFD3A20607304F10E00696803F039
:1036200086FD3A20207404F11100296803F07FFD23
:103630002020E074686900F26C70642190FBF1F660
:10364000314604F1140003F072FD686900F26C70F9
:10365000642190FBF1F201FB1206314604F11600E1
:1036600003F065FD0A20207600206076204660E7A2
:10367000A0D90008C0D900081B5B33336D5B572FFE
:1036800074696D655D20000024EE00081B5B306DE1
:103690000A0000000246002106E001208840904216
:1036A00001D108467047491C2029F6DB4FF0FF3056
:1036B000F8E7000010B520A006F022F821480178B4
:1036C00021A006F01DF81F48007800F0010010B19D
:1036D00023A006F015F81B48007800F0020010B196
:1036E00022A006F00DF81748007800F0040010B191
:1036F00021A006F005F81348007800F0080010B18A
:1037000021A005F0FDFF0F48007800F0100010B177
:1037100020A005F0F5FF0B48007800F0800030B1E4
:1037200008480F3001681DA005F0EAFF02E01FA065
:1037300005F0E6FF10BD0000627573206661756CD0
:10374000743A0A0029ED00E05343425F4346535266
:103750005F424653523A30782530325820000000FC
:1037600049425553455252200000000050524543F3
:103770004953455252200000494D50524543495348
:103780004552522000000000554E53544B455252B2
:103790002000000053544B45525220005343422D09
:1037A0003E424641523A253038580A000A0000008D
:1037B00010B502A005F0A4FF002010BD1B5B324A2B
:1037C0001B5B480070B5002414E004F1B00009F060
:1037D0003FFF102009F03CFF002009F039FF0025D1
:1037E00004E0002009F04CFF681CC5B2842DF8DB12
:1037F000601CC4B2042CE8DB70BD0000F8B50646BE
:103800000D46022E0FD0012E09D108F0C3FE074647
:103810003946184805F074FF03F07CFFF8BD16A088
:1038200005F06EFFFAE7002269466868FCF70DFEB6
:10383000044668680099884204D119A0696805F0B7
:103840005FFFEBE77CB1204606F0C8FC01280AD1F7
:1038500027462246394617A06B6805F051FF3846C7
:1038600003F0A8FF03E021461AA005F049FF00BFBE
:10387000D4E70000D0F50008706C656173652075B1
:1038800073653A206261636B7472616365205B7477
:1038900068726561645F616464726573735D0A0078
:1038A000496E76616C696420696E7075743A202582
:1038B000730A00006261636B747261636520257333
:1038C000283078256C78292C2066726F6D2025733E
:1038D0000A000000496E76616C6964207069643A80
:1038E00020256C640A00000070B590B005460C46B7
:1038F000022D5CDB606804F0B7FE06463EB931A0DD
:10390000616805F0FDFE4FF0FF3010B070BD34A0CF
:10391000616805F0F5FE01AA1721304604F05AFE51
:103920003648DDE9011205F0EBFE3548DDE9081205
:1039300005F0E6FE3348DDE90A1205F0E1FE32A0AB
:10394000039A0C9905F0DCFE0398082821D2DFE8E1
:1039500000F0040A10111718191A3948016839A023
:1039600005F0CEFE15E03648416836A005F0C8FEE9
:103970000FE000BF3248816832A005F0C1FE08E0C8
:1039800000BF00BF00BF2E48C1682EA005F0B8FEE2
:1039900000BF00BF2C48DDE9041205F0B1FEDDE9EF
:1039A0000603C1181A46294805F0AAFE07E028A018
:1039B000216805F0A5FE2B48216805F0A1FE002036
:1039C000A3E700002043616E27742066696E6420BF
:1039D00063616E206465766963652025730A000063
:1039E00020466F756E642063616E2064657669633E
:1039F000653A2025732E2E2E00000000C0EF00082F
:103A000004F000087CEF00080A204352432E2E2EBB
:103A10002E2E2E2E6572726F722E2E636F756E743F
:103A20003A20253031306C642E204572726F722E30
:103A3000636F64652E5B253031306C645D3A200025
:103A4000E00E002025732E0038EF00086CEE000811
:103A500020496E76616C69642043616C6C2025732B
:103A60000A000000B4EE00083EB504460D460020F2
:103A70000290019000906A4601A902A805F056FF45
:103A800009A0029905F03CFE0BA0019905F038FE53
:103A90000DA0009905F034FEDDE90120811A0EA089
:103AA00005F02EFE00203EBD746F74616C20202056
:103AB000203A2025640A00007573656420202020C8
:103AC000203A2025640A00006D6178696D756D20CB
:103AD000203A2025640A0000617661696C61626C9D
:103AE000653A2025640A000070B504460D46022C94
:103AF00030D11E4A2946204602F0E8FB0B2825D289
:103B0000DFE800F024060C120F15181B1E21090017
:103B100002F0E2F81BE002F0F3F918E002F032F8EC
:103B200015E001F07BFB12E001F056FF0FE001F021
:103B300087FC0CE001F0A0FE09E001F039FD06E091
:103B400001F0D4FD03E001F0CBFA00E003E000BF98
:103B5000002070BD00BF06A005F0D2FD0AA005F050
:103B6000CFFD024802F05AFD0020F2E728100020A5
:103B700055736167653A206C697374205B6F70746C
:103B8000696F6E735D0A00005B6F7074696F6E73AE
:103B90005D3A0A0070B504460D4602F09DF800201B
:103BA00070BD000070B58CB006460C4626B92222C6
:103BB00059495AA003F072FD24B9232256495CA04A
:103BC00003F06CFD01A8FDF723F9706C056C5F48EC
:103BD000854209D05E48854206D05E48854203D0C2
:103BE0006FF00B000CB070BD6078082803DC00207B
:103BF000ADF820000AE06078102804DC4FF4006083
:103C0000ADF8200002E06FF00B00EBE761684F4A6F
:103C1000954201D1049800E00398B1EB500F03D313
:103C20000022ADF828202CE0B1EB900F03D308223E
:103C3000ADF8282025E0B1EBD00F03D31022ADF86A
:103C400028201EE0B1EB101F03D31822ADF8282066
:103C500017E0B1EB501F03D32022ADF8282010E06D
:103C6000B1EB901F03D32822ADF8282009E0B1EB77
:103C7000D01F03D33022ADF8282002E03822ADF85F
:103C80002820207800F0030030B101280AD0022853
:103C90000FD003281BD113E00020ADF82200ADF8AF
:103CA000240014E00020ADF822000120ADF824002B
:103CB0000DE00220ADF822000020ADF8240006E05F
:103CC0000220ADF822000120ADF8240000BF00BFA3
:103CD000207800F0040018B10020ADF82A0002E0BE
:103CE0008020ADF82A000020ADF81C004FF482704F
:103CF000ADF81E004FF40070ADF826000720ADF8B7
:103D00002C0007A92846FDF741F901212846FDF7B7
:103D100023F9002066E70000D4E5000864657669B1
:103D2000636520213D2052545F4E554C4C000000ED
:103D3000636F6E66696775726174696F6E20213D8D
:103D40002052545F4E554C4C0000000000300140A2
:103D500000380040003C004070B50446204602F0A8
:103D6000AFF90546FFF7D2FB70BD00002DE9F04723
:103D700005460C460026012D70DD5CA16068FCF74D
:103D8000B3FC002817D1032D11D1A06804F06CFCFE
:103D9000584908600846006808B957A000E058A0D4
:103DA00007463A4658A0A16805F0AAFC9BE05AA035
:103DB00005F0A6FC97E04F48006830B961A005F017
:103DC0009FFC6FF0FE00BDE8F08769A16068FCF71A
:103DD0008BFC002820D1032D1AD1A068FCF728FB0A
:103DE000804641464348006803F002FF06460EB98C
:103DF00043A000E040A00746A068FCF719FB8046FE
:103E00003B4642463B4801685BA005F079FC6AE00E
:103E100060A005F075FC66E06AA16068FCF764FCD0
:103E200028BB042D1FD1E068FCF702FB8046A06888
:103E3000FCF7FEFA8146424649462E48006803F0E8
:103E4000F3FEE068FCF7F4FA8046A068FCF7F0FAAD
:103E5000814643464A462748016800E032E05BA0BD
:103E600005F04EFC3FE0624805F04AFC3BE061A1F2
:103E70006068FCF739FC002820D1032D1AD1A06816
:103E8000FCF7D6FA804641461A48006803F094FED3
:103E900006460EB91AA000E017A00746A068FCF776
:103EA000C7FA80463B4642461248016853A005F0D7
:103EB00027FC18E058A005F023FC14E062A005F0F0
:103EC0001FFC10E06CA005F01BFC6EA005F018FCB8
:103ED000794805F015FC79A005F012FC85A005F0E5
:103EE0000FFC6FF0FE0600206DE7000070726F623D
:103EF00065000000000F00206661696C7572650046
:103F0000737563636573730070726F6265202573E8
:103F1000202573200A0000006461632070726F62C4
:103F200065203C6461635F6E616D653E2020202DDD
:103F30002070726F626520646163206279206E6117
:103F40006D650A00506C65617365207573696E67F5
:103F500020276461632070726F6265203C64616336
:103F60005F6E616D653E272066697273740A00009A
:103F7000656E61626C6500002573206368616E6E1A
:103F8000656C20256420656E61626C657320257305
:103F9000200A000064616320656E61626C65203CEC
:103FA0006368616E6E656C3E2020202D20656E6119
:103FB000626C6520646163206368616E6E656C0A83
:103FC00000000000777269746500000025732063AB
:103FD00068616E6E656C2025642077726974652057
:103FE00076616C7565206973202564200A000000E5
:103FF00048F0000864697361626C65002573206392
:1040000068616E6E656C2025642064697361626C02
:1040100065202573200A0000646163206469736170
:10402000626C65203C6368616E6E656C3E20202D7D
:104030002064697361626C652064616320636861F8
:104040006E6E656C0A000000556E6B6E6F776E20A9
:10405000636F6D6D616E642E20506C6561736520B9
:10406000656E74657220276461632720666F722015
:1040700068656C700A00000055736167653A200A34
:10408000000000006461632070726F6265203C6410
:1040900061635F6E616D653E20202020202020201E
:1040A0002020202D2070726F626520646163206281
:1040B00079206E616D650A008CF0000864616320F0
:1040C00064697361626C65203C6368616E6E656CE7
:1040D0003E202020202020202020202D20646973D5
:1040E00061626C6520646163206368616E6E656CFB
:1040F0000A00000064616320656E61626C65203CAB
:104100006368616E6E656C3E202020202020202098
:104110002020202D20656E61626C65206461632023
:104120006368616E6E656C0A000000002DE9F0475F
:104130008EB006460C4600200D90012E45D10B9006
:104140000C900025002708F0BBFD054600210BA8B8
:1041500000F05AFE0B980D90002D01DD284600E07E
:10416000684207460DA8FFF7F7FD80464246192131
:104170005AA005F0C5FA5EA00B9905F0C1FA4FF4FC
:104180006160B7FBF0F100FB11703C21B0FBF1F274
:1041900001FB12084FF46160B7FBF0F100FB1170F6
:1041A0003C21B0FBF1F94FF46160B7FBF0FACDF8B8
:1041B0000080002D01DD2B2000E02D2001464B4624
:1041C000524650A005F09CFA85E0072E7DDB2C219D
:1041D00002A8FCF737FA002001906068FCF728F984
:1041E000A0F26C700790A068FCF722F9401E0690C0
:1041F000E068FCF71DF905902069FCF719F90490B7
:104200006069FCF715F90390A069FCF711F90290B9
:104210000798002805DC43A005F072FA0EB0BDE84F
:10422000F08706980B2803DD46A005F069FAF5E74C
:10423000059810B105981F2803DD4AA005F060FA23
:10424000ECE70498172803DD4DA005F059FAE5E7DF
:1042500003983B2803DD52A005F052FADEE70298EE
:104260003C2803DD56A005F04BFAD7E701A800F083
:10427000AFFD054625B1294659A005F041FACDE725
:1042800002A801F0D5FF0D900D9809F03BF8054606
:1042900025B129465BA005F033FABFE70DA800F071
:1042A00097FD01A8FFF758FD07463A4619215BA084
:1042B00005F026FA0DA8FFF74FFD07463A461921EB
:1042C00059A005F01DFA06E0FFE75AA005F018FA1C
:1042D00067A005F015FA00BFA0E700006C6F6361EE
:1042E0006C2074696D653A20252E2A730000000049
:1042F00074696D657374616D70733A20256C640A1E
:104300000000000074696D657A6F6E653A2055543F
:10431000432563253032643A253032643A25303201
:10432000640A000079656172206973206F757420DA
:104330006F662072616E6765205B313930302D5DAC
:104340000A0000006D6F6E7468206973206F7574C9
:10435000206F662072616E6765205B312D31325DA2
:104360000A000000646179206973206F7574206F02
:10437000662072616E6765205B312D33315D0A0006
:10438000686F7572206973206F7574206F66207274
:10439000616E6765205B302D32335D0A00000000DE
:1043A0006D696E757465206973206F7574206F6612
:1043B0002072616E6765205B302D35395D0A000023
:1043C0007365636F6E64206973206F7574206F6608
:1043D0002072616E6765205B302D36305D0A00000B
:1043E0004765742063757272656E742074696D65BB
:1043F0007374616D70206661696C65642E2025643C
:104400000A00000073657420646174652066616948
:104410006C65642E2025640A000000006F6C643A0D
:1044200020252E2A730000006E6F773A20252E2A51
:1044300073000000706C6561736520696E7075743F
:104440003A2064617465205B79656172206D6F6EDE
:1044500074682064617920686F7572206D696E20C0
:104460007365635D206F7220646174650A000000EB
:10447000652E673A2064617465203230313820300F
:1044800031203031203233203539203539206F72D8
:1044900020646174650A0000002106E0002200E04B
:1044A000521CB2F5FA7FFBD3491C8142F6D3704708
:1044B0002DE9F0470646894617461C46002518E0B8
:1044C0007019494600F0F6FD4FF000080DE0012F8D
:1044D00005D12178C94388B209F0D2F802E02078EA
:1044E00009F0CEF8641C08F10108B8F1100FEED302
:1044F0006D1C022DE4D3BDE8F08700002DE9F84FD4
:1045000081468A4693461D46002435E0285D2028D2
:1045100031DB285D7E282EDC285DA0F120080026F6
:1045200023E009EB0600514600F0C4FD002719E026
:10453000BBF1010F09D1134800EB0810082101FB62
:104540000671405CC043009007E00E4800EB081085
:10455000082101FB0671405C0090009988B209F0C7
:104560008FF87F1C082FE3D3761C022ED9D3641C4E
:104570000AF1080A00E0641C285D0028C6DCBDE8DA
:10458000F88F00000000002010B51748006890F870
:104590002900C0F3400020B90020144908700846E3
:1045A00010BD1348006830B18022114801680F48DF
:1045B000FCF76FF803E00FA10C48FBF7B5FF0B48C1
:1045C00007F0D0FB801C80280CD2084807F0CAFBFB
:1045D00006493E220A54084607F0C4FB401C034922
:1045E00000220A540148DBE7B410002060150020C7
:1045F000B81000206D7368200000000038B500205E
:1046000000901848006820B9AD22174917A003F0A0
:1046100045F814480068D0F8144214B94FF0FF3040
:1046200038BD13E04FF0FF310E48006806F00EFB76
:104630000C480068D0F81402A04207D0094800686E
:10464000D0F8144214B94FF0FF30E9E701236A466D
:10465000991E204604F000F90128E3D19DF80000DE
:10466000DEE70000B41000206EE700087368656C98
:104670006C20213D2052545F4E554C4C00000000F0
:1046800070B504460D460748006820B9CC2206499B
:1046900006A003F003F80348006806F07FFA002044
:1046A00070BD0000B41000207CE700087368656CE2
:1046B0006C20213D2052545F4E554C4C00000000B0
:1046C00070B5054600242648006820B9DF22254938
:1046D00025A002F0E3FF284603F0C6FF044624B9F4
:1046E000294626A005F00CF870BD1D480068D0F8DA
:1046F0001402A04200D1F7E740F24311204603F034
:10470000BBFF50BB16480068D0F8140260B11449D2
:104710000968D1F8140203F005FF11490968D1F8BE
:104720001402002104F00CF9512200210C48006809
:1047300000F5DF7005F01CF9002009490968A1F8AF
:10474000100207490968A1F8120205480068C0F87C
:1047500014421249204604F0F3F800BFC4E70000F9
:10476000B410002089E700087368656C6C20213D57
:104770002052545F4E554C4C0000000066696E7329
:10478000683A2063616E206E6F742066696E6420E3
:104790006465766963653A2025730A0081460008DE
:1047A00010B504460948006820B99922084909A0B3
:1047B00002F074FF0548006890F8290064F3410096
:1047C0000249096881F8290010BD0000B4100020DA
:1047D00058E700087368656C6C20213D2052545FD7
:1047E0004E554C4C00000000024A1060024A116015
:1047F00070470000AC100020B01000207CB50025F0
:1048000017491848FFF7F0FF4FF40671012002F036
:10481000E4FF154908600846006820B913A004F0B9
:104820006FFF681E7CBD0A2014214FF480530022C4
:10483000CDE90010134914A007F0B2FC0446002390
:104840001A4613A10848006806F048F90120FFF74E
:10485000A7FF1CB115B9204607F0A2FE0020E1E732
:10486000E4FA000824FA0008B41000206E6F206DEE
:10487000656D6F727920666F72207368656C6C0A63
:104880000000000099480008747368656C6C0000B3
:10489000736872780000000000BFFE48006810B125
:1048A000FC480068804700BFFB48006890F829007A
:1048B00020F00100401CF849096881F82900F648F9
:1048C0000068D0F8140238B903F040F9054615B174
:1048D0002846FFF7F5FE00BFFFF756FE054604F039
:1048E0000FFF5DE2FFF78AFE0446002C00DA57E274
:1048F0001B2C05D10120E849096881F828004FE206
:10490000E548006890F8280001280DD15B2C05D1FE
:104910000220E149096881F8280041E20020DE49CF
:10492000096881F82800BEE0DB48006890F828009C
:104930000228F8D10020D849096881F82800412CC4
:1049400036D1D5480068408D002807DDD248006880
:10495000408D401ED0490968488504E00020CE49BA
:10496000096848851CE2CC480068408D00EB800255
:10497000C94800682E3000EB02115022C64800687A
:1049800000F5DF7004F070FFC348006800F5DF70C9
:10499000FBF7EEFD80B2C0490968A1F81002BE49DC
:1049A0000968A1F81202BC48006808F0E1FCF7E1D0
:1049B000422C42D1B8480068418DB7480068808DCC
:1049C000401E814207DAB4480068408D401CB2495D
:1049D000096848850CE0B0480068808D38B1AE4861
:1049E0000068808D401EAC490968488500E0D7E129
:1049F000A9480068408D00EB8002A74800682E306F
:104A000000EB02115022A448006800F5DF7004F0AA
:104A10002BFFA148006800F5DF70FBF7A9FD80B20D
:104A20009D490968A1F810029B490968A1F8120282
:104A30009948006808F09CFCB2E1442C11D19648DA
:104A40000068B0F8120258B194A004F059FE9248E0
:104A50000068B0F81202401E8F490968A1F81202DE
:104A60009EE1432C1FD18C480068B0F812028A499D
:104A70000968B1F81012884214DA87480068B0F863
:104A800012228548006800F5DF70815C84A004F084
:104A900037FE81480068B0F81202401C7E49096860
:104AA000A1F812027CE10CB1FF2C00D178E1092CB5
:104AB00021D1002503E079A004F022FE6D1C764888
:104AC0000068B0F81202A842F5DC7348006800F5EF
:104AD000DF7008F033FC7048006800F5DF70FBF70A
:104AE00047FD80B26C490968A1F810026A4909685B
:104AF000A1F8120254E17F2C01D0082C74D1664831
:104B00000068B0F8120200B94AE163480068B0F8E2
:104B10001002401E60490968A1F810025E48006852
:104B2000B0F81202401E5C490968A1F812025A4806
:104B30000068B0F8100258490968B1F812128842AA
:104B400043DD554B1B68B3F81032534E3668B6F848
:104B500012629A1B504B1B68B3F812325B1C4E4E0C
:104B6000366806F5DF7699194B4B1B68B3F812626D
:104B7000494B1B6803F5DF73F01804F0B5FE002104
:104B800045480068B0F810224348006800F5DF701F
:104B9000815441480068B0F812223F48006800F58F
:104BA000DF7011183FA004F0ABFD3B480068B0F87F
:104BB000125203E039A004F0A3FD6D1C36480068D2
:104BC000B0F81002A842F5DA0CE038A004F098FD25
:104BD000002131480068B0F810222F48006800F525
:104BE000DF708154DCE0FFE70D2C01D00A2C2ED1C0
:104BF0002948006808F0D4FB2748006890F829008D
:104C000000F0010010B12AA004F07AFD22480068EB
:104C1000B0F810122048006800F5DF7001F072FB58
:104C2000FFF7B2FC054604F06BFD512200211A4843
:104C3000006800F5DF7004F09BFE0020164909684B
:104C4000A1F8100214490968A1F81202A8E012485C
:104C50000068B0F81002502804DB00200E490968F3
:104C6000A1F810020C480068B0F812020A4909685D
:104C7000B1F8101288425BDA074B1B68B3F81032A8
:104C8000054E3668B6F812629A1B034B1B68B3F8E0
:104C900012620FE0BC100020B410002008000000D9
:104CA0002563000008257320200800000820080064
:104CB0000A0000003B4B1B6803F5DF73F118394B0A
:104CC0001B68B3F812325B1C364E366806F5DF7689
:104CD000981904F009FE33480068B0F812223148F0
:104CE000006800F5DF7084542E48006890F82900B1
:104CF00000F0010058B12B480068B0F81222294892
:104D0000006800F5DF70111827A004F0F9FC2548B1
:104D10000068B0F8125204E0AFF2800004F0F0FC3A
:104D20006D1C20480068B0F81002A842F4DC14E0C2
:104D30001C480068B0F810221A48006800F5DF70BF
:104D400084541848006890F8290000F0010020B150
:104D50002146AFF2B40004F0D3FC002411480068EF
:104D6000B0F81002401C0F490968A1F810020D4864
:104D70000068B0F81202401C0A490968A1F8120242
:104D800008480068B0F81002502808DB00200549E8
:104D90000968A1F8100203490968A1F8120200BFCE
:104DA000A0E50000B4100020257300000146702922
:104DB00009D201EB4102054B03EB82000268521C51
:104DC00012B9002000E000207047000038E0000821
:104DD00010B504460A48006850B90AA003F044FC24
:104DE000074908600846006810B96FF0FE0010BD62
:104DF000224640F201610248006803F0EBFBF6E74F
:104E0000040F00207274630070B504460D4645B16E
:104E10000020686007F054FF3C2190FBF1F0404215
:104E2000286094B1002020606060214640F2036059
:104E3000FCF7E8FB08B9002070BD214640F2016094
:104E4000FCF7E0FB08B90020F6E7052006F032FA8F
:104E50004FF0FF30F0E700002DE9F04107460C4627
:104E600007B12CB9152006F025FA0020BDE8F08125
:104E70002C220021204604F07BFD30493868B0FB2D
:104E8000F1F201FB12053C2095FBF0F100FB115003
:104E900020603C2095FBF0F595FBF0F100FB1150F4
:104EA00060603C2095FBF0F0A06024493868B0FBBE
:104EB000F1F5281D072190FBF1F201FB1200A06122
:104EC00040F2B27600BF3046FCF734FB10B14FF42D
:104ED000B77001E040F26D108046454502DBA5EB5E
:104EE000080500E001E0761CEDE700BFA6F26C705B
:104EF0006061E5610120E0603046FCF71BFB30B1EA
:104F00003A2D04DD3B2D01D10220E0606D1E0B2601
:104F100000E0761E26B10A4830F91600A842F8DCF7
:104F20002661074931F91610691AE0680844E06003
:104F300007F0CCFE2062204698E700008051010077
:104F400080D9000808B501216820FBF74BFF30200D
:104F5000ADF8000003208DF8020010208DF803004A
:104F600069460848FBF7DAFD0320ADF800008DF82C
:104F7000020010208DF8030069460348FBF7CEFDC0
:104F800008BD0000001801400014014010B514488D
:104F9000006800F0020010B112A004F0B1FB10484C
:104FA000006800F0804088B10D48C01E007808B14C
:104FB000FEF780FB0A48001F007808B101F0C4F832
:104FC0000748801E008808B108F0A6FB0448006866
:104FD00000F0004010B109A004F092FB10BD0000E9
:104FE0002CED00E06661696C656420766563746F22
:104FF000722066657463680A00000000646562756B
:1050000067206576656E740A000000000CE00024DD
:1050100005E0064850F8245005B1A847641C042C4C
:10502000F7D303F05FFA00BFF1E70000801700201C
:1050300010B520211E48FBF70DFE1420FFF72CFAB7
:1050400020211B48FBF708FEE22008F001FB14209A
:10505000FFF722FA2C2008F0FBFA0520FFF71CFAD4
:105060002E2008F0F5FA0520FFF716FA2F2008F099
:10507000EFFA0520FFF710FA232008F0E9FA812063
:1050800008F0E6FA202008F0E3FA1920FFF704FA06
:10509000A22008F0DDFAC82008F0DAFAA02008F013
:1050A000D7FA402008F0D4FAAF2008F0D1FA10BDAA
:1050B0000018014070B505460C466D1E641E05F1D2
:1050C000B00188B208F0C4FAC4F3031101F1100072
:1050D00008F0BEFA04F00F0008F0BAFA70BD000044
:1050E0002DE9F04F91B04FF000090FF2BC0B0823EF
:1050F00003AA09210BA800F041F90B98051F082607
:105100005B46324631462AA004F0FAFA304602F0F5
:105110001BF831A004F0F4FA00BF0BA9484600F0D8
:1051200042F98146002735E003A850F82700A0F196
:105130000C0805F1100006F0C5FD109098F8080065
:1051400020F080009DF83410884205D005F1100051
:10515000109906F0CDFD1CE005F11000109906F045
:10516000C7FD44460FF2940A207D1F2807DA207DF0
:10517000244951F8200010B1207D51F820A0A07ED4
:10518000234608223146CDE900A01FA004F0B8FA5A
:1051900000BF7F1C0F98B842C6DCB9F1000FBCD12C
:1051A000002011B0BDE8F08F64657669636500008A
:1051B000252D2A2E2A732020202020202020207414
:1051C0007970652020202020202020207265662014
:1051D000636F756E740A0000202D2D2D2D2D2D2D41
:1051E0002D2D2D2D2D2D2D2D2D2D2D2D2D202D2DFC
:1051F0002D2D2D2D2D2D2D2D0A000000556E6B6EA1
:105200006F776E00B8E60008252D2A2E2A73202518
:105210002D32307320252D38640A00002DE9F04F1F
:1052200091B04FF000090FF2D80A082303AA042115
:105230000BA800F0A3F80B98051F0826534632462A
:10524000314631A004F05CFA304601F07DFF37A012
:1052500004F056FA00BF0BA9484600F0A4F88146B6
:10526000002742E003A850F82700A0F10C0805F140
:10527000100006F027FD109098F8080020F080003C
:105280009DF83410884205D005F11000109906F001
:105290002FFD29E005F11000109906F029FD444684
:1052A00004F1140004F07BFAA8B904F1140004F02E
:1052B0008EFA8346E069234608223146CDE9000B89
:1052C00022A004F01DFA04F1140006F0F7FD25A059
:1052D00004F016FA07E0E069234608223146009000
:1052E00021A004F00DFA00BF7F1C0F98B842B9DC72
:1052F000B9F1000FAFD1002011B0BDE8F08F000070
:105300006576656E74000000252D2A2E2A732020F4
:105310002020202073657420202020737573706511
:105320006E64207468726561640A000020202D2D6F
:105330002D2D2D2D2D2D2D2D202D2D2D2D2D2D2DAA
:105340002D2D2D2D2D2D2D0A00000000252D2A2E6E
:105350002A73202030782530387820253033643A7D
:10536000000000000A000000252D2A2E2A732020AC
:1053700030782530387820300A0000002DE9F047D9
:1053800004460D4616461F46284604F00FFF814688
:1053900009F10408C4F8008025726660E760002007
:1053A0002061BDE8F0872DE9FC5F81460C460020B6
:1053B00001902061E06808B1207A10B90020BDE8B2
:1053C000FC9F2668371FB9F1000F03D13546012035
:1053D000019000E04D4607F1100006F073FC0090CC
:1053E000019880B9A5F10C0B9BF8080020F0800013
:1053F000217A884206D007F11000009906F078FC67
:105400000020DCE700BF4FF00008D4F804A00CE057
:105410002D68B54201D1002508E008F101084AF8DD
:10542000045BE068404500D100E0F1E700BF07F110
:105430001000009906F05CFCC4F810802846BEE716
:105440002DE9F04F91B04FF000090FF2EC0A08235C
:1054500003AA05210BA8FFF791FF0B98051F08264B
:1054600053463246314636A004F04AF9304601F040
:105470006BFE3CA004F044F900BF0BA94846FFF7BF
:1054800092FF814600274CE003A850F82700A0F1C6
:105490000C0805F1100006F015FC109098F80800B3
:1054A00020F080009DF83410884205D005F11000EE
:1054B000109906F01DFC33E005F11000109906F07C
:1054C00017FC444604F1140004F069F9B8B904F17A
:1054D000140004F07CF98346208C618C234608225A
:1054E000CDE9010B0091314625A004F009F904F142
:1054F000140006F0E3FC1AA004F002F90FE004F136
:10550000140004F064F98346208C618C2346082241
:10551000CDE9010B009131461FA004F0F1F800BF66
:105520007F1C0F98B842AFDCB9F1000FA5D1002065
:1055300011B0BDE8F08F00006D61696C626F78009A
:10554000252D2A2E2A7320656E7472792073697A4C
:10555000652073757370656E64207468726561642C
:105560000A000000202D2D2D2D20202D2D2D2D2049
:105570002D2D2D2D2D2D2D2D2D2D2D2D2D2D0A00AB
:10558000252D2A2E2A7320253034642020253034FE
:10559000642025643A000000252D2A2E2A73202538
:1055A0003034642020253034642025640A00000053
:1055B0002DE9F04F91B04FF000090FF2AC0A08232B
:1055C00004AA07210CA8FFF7D9FE0C98061F08278C
:1055D00053463A46394626A004F092F8384601F080
:1055E000B3FD30A004F08CF800BF0CA94846FFF7CB
:1055F000DAFE81464FF000082BE004A850F828009E
:10560000A0F10C0406F1100006F05CFB8346207A42
:1056100020F080009DF83810884205D0594606F1E8
:10562000100006F065FB12E0594606F1100006F086
:105630005FFB2546D5E90702A9692B46CDE9001293
:1056400002900822394622A004F05AF800BF08F15F
:10565000010810984045D0DCB9F1000FC5D10020F9
:1056600011B0BDE8F08F00006D656D686561700078
:10567000252D2A2E2A732020706F6F6C2073697A73
:105680006520206D617820757365642073697A6583
:1056900020617661696C61626C652073697A650A64
:1056A00000000000202D2D2D2D2D2D2D2D2D2D20F8
:1056B0002D2D2D2D2D2D2D2D2D2D2D2D2D202D2D27
:1056C0002D2D2D2D2D2D2D2D2D2D2D2D0A000000B4
:1056D000252D2A2E2A7320252D3031306420252DAA
:1056E0003031336420252D3035640A002DE9F04F28
:1056F00093B04FF0000B3DA00490082305AA194673
:105700000DA8FFF73BFE0D98061F08273A463946BD
:1057100038A0049B03F0F4FF384601F015FD3FA0CC
:1057200003F0EEFF00BF0DA95846FFF73CFE83468D
:105730004FF000084FE005A850F82800A0F10C0930
:1057400006F1100006F0BEFA129099F8080020F059
:1057500080009DF83C10884205D006F11000129997
:1057600006F0C6FA35E006F11000129906F0C0FA0C
:105770004C460025D4F82CA002E06D1CDAF800A0FD
:1057800004F12C008245F8D1002D14DDD4E9092064
:10579000E1692346CDE90205CDE900120822394628
:1057A00027A003F0ADFF04F12C0006F087FB23A037
:1057B00003F0A6FF0CE0D4E90921E0692346CDE916
:1057C0000215CDE900020822394624A003F098FF13
:1057D00000BF08F1010811984045ACDCBBF1000F97
:1057E000A1D1002013B0BDE8F08F00006D656D7091
:1057F0006F6F6C00252D2A2E2A7320626C6F636BED
:1058000020746F74616C20667265652073757370A7
:10581000656E64207468726561640A00202D2D2D08
:105820002D20202D2D2D2D20202D2D2D2D202D2DE9
:105830002D2D2D2D2D2D2D2D2D2D2D2D0A00000042
:10584000252D2A2E2A73202530346420202530343B
:10585000642020253034642025643A00252D2A2E2A
:105860002A732025303464202025303464202025FC
:105870003034642025640A002DE9F04F91B04FF0D8
:1058800000090FF2E40A082303AA06210BA8FFF778
:1058900075FD0B98051F082653463246314635A044
:1058A00003F02EFF304601F04FFC3AA003F028FF32
:1058B00000BF0BA94846FFF776FD8146002748E068
:1058C00003A850F82700A0F10C0805F1100006F01D
:1058D000F9F9109098F8080020F080009DF8341035
:1058E000884205D005F11000109906F001FA2FE06A
:1058F00005F11000109906F0FBF9444604F114007C
:1059000003F04DFFA8B904F1140003F060FF8346D3
:10591000A08C234608223146CDE9000B23A003F0DA
:10592000EFFE04F1140006F0C9FA25A003F0E8FE2A
:105930000DE004F1140003F04AFF8346A08C2346D7
:1059400008223146CDE9000B1EA003F0D9FE00BFAE
:105950007F1C0F98B842B3DCB9F1000FA9D1002029
:1059600011B0BDE8F08F00006D73677175657565E6
:1059700000000000252D2A2E2A7320656E7472798E
:105980002073757370656E64207468726561640A53
:1059900000000000202D2D2D2D20202D2D2D2D2D12
:1059A0002D2D2D2D2D2D2D2D2D0A0000252D2A2EAE
:1059B0002A732025303464202025643A000000003A
:1059C0000A000000252D2A2E2A7320253034642059
:1059D0002025640A000000002DE9F04F93B04FF03D
:1059E00000090FF2FC0A082305AA03210DA8FFF7FE
:1059F000C5FC0D98051F08265346324631463AA08D
:105A000003F07EFE304601F09FFB43A003F078FEDA
:105A100000BF0DA94846FFF7C6FC8146002754E0A9
:105A200005A850F82700A0F10C0805F1100006F0B9
:105A300049F9129098F8080020F080009DF83C1079
:105A4000884205D005F11000129906F051F93BE0AB
:105A500005F11000129906F04BF9444604F11400C8
:105A600003F09DFED8B904F1140003F0B0FE8346A4
:105A7000607FA17F226ACDE9030BCDE901210820D7
:105A800023460246314600902DA003F039FE04F172
:105A9000140006F013FA32A003F032FE13E004F112
:105AA000140003F094FE8346607FA17F226ACDE953
:105AB000030BCDE901210820234602463146009020
:105AC00028A003F01DFE00BF7F1C1198B842A7DC80
:105AD000B9F1000F9DD1002013B0BDE8F08F000098
